{
  "contractName": "Keccak256",
  "abi": [
    {
      "constant": true,
      "inputs": [
        {
          "name": "_code",
          "type": "string"
        }
      ],
      "name": "getKeccak256",
      "outputs": [
        {
          "name": "",
          "type": "bytes32"
        }
      ],
      "payable": false,
      "stateMutability": "view",
      "type": "function",
      "signature": "0x00f86ac7"
    }
  ],
  "bytecode": "0x608060405234801561001057600080fd5b50610158806100206000396000f3fe608060405234801561001057600080fd5b5060043610610047576000357c010000000000000000000000000000000000000000000000000000000090048062f86ac71461004c575b600080fd5b6101056004803603602081101561006257600080fd5b810190808035906020019064010000000081111561007f57600080fd5b82018360208201111561009157600080fd5b803590602001918460018302840111640100000000831117156100b357600080fd5b91908080601f016020809104026020016040519081016040528093929190818152602001838380828437600081840152601f19601f82011690508083019250505050505050919291929050505061011b565b6040518082815260200191505060405180910390f35b60008180519060200120905091905056fea165627a7a72305820545da6eb4a6b74f57c13d7743ae0ec8e454f1d4530f96997c8e22cceb356d1c40029",
  "source": "//Current version:0.5.2+commit.1df8f40c.Emscripten.clang\npragma solidity ^0.5.2;\n\n/// @title  Reservez s'il vous plait\n/// @author CagliariEthereumLab\n/// @notice RSVP aka Reservez s'il vous plait version 0.0.2\n\ncontract Keccak256 {\n\n    function getKeccak256(string memory _code) view public returns (bytes32) {\n        return keccak256(bytes(_code));\n    }\n}\n",
  "sourcePath": "/media/Dati/CagliariEthereumLab/TestSuiteLab/contracts/RSVP/contracts/Keccak256.sol",
  "compiler": {
    "name": "solc",
    "version": "0.5.2+commit.1df8f40c.Emscripten.clang"
  },
  "schemaVersion": "3.0.1",
  "updatedAt": "2019-01-19T12:23:05.644Z",
  "devdoc": {
    "author": "CagliariEthereumLab",
    "methods": {},
    "title": "Reservez s'il vous plait"
  },
  "userdoc": {
    "methods": {},
    "notice": "RSVP aka Reservez s'il vous plait version 0.0.2"
  }
}