{
  "contractName": "RSVP",
  "abi": [
    {
      "constant": true,
      "inputs": [],
      "name": "owner",
      "outputs": [
        {
          "name": "",
          "type": "address"
        }
      ],
      "payable": false,
      "stateMutability": "view",
      "type": "function",
      "signature": "0x8da5cb5b"
    },
    {
      "constant": true,
      "inputs": [
        {
          "name": "",
          "type": "address"
        }
      ],
      "name": "bookings",
      "outputs": [
        {
          "name": "",
          "type": "bool"
        }
      ],
      "payable": false,
      "stateMutability": "view",
      "type": "function",
      "signature": "0xa0a934ff"
    },
    {
      "constant": true,
      "inputs": [],
      "name": "stakeholders",
      "outputs": [
        {
          "name": "",
          "type": "uint256"
        }
      ],
      "payable": false,
      "stateMutability": "view",
      "type": "function",
      "signature": "0xeeafa758"
    },
    {
      "inputs": [],
      "payable": false,
      "stateMutability": "nonpayable",
      "type": "constructor",
      "signature": "constructor"
    },
    {
      "payable": true,
      "stateMutability": "payable",
      "type": "fallback"
    },
    {
      "constant": false,
      "inputs": [
        {
          "name": "_hashedCode",
          "type": "bytes32"
        }
      ],
      "name": "addCode",
      "outputs": [],
      "payable": false,
      "stateMutability": "nonpayable",
      "type": "function",
      "signature": "0xbd637580"
    },
    {
      "constant": true,
      "inputs": [
        {
          "name": "_code",
          "type": "string"
        }
      ],
      "name": "verifyCode",
      "outputs": [
        {
          "name": "",
          "type": "bool"
        }
      ],
      "payable": false,
      "stateMutability": "view",
      "type": "function",
      "signature": "0x2f9ff863"
    },
    {
      "constant": false,
      "inputs": [
        {
          "name": "_code",
          "type": "string"
        }
      ],
      "name": "unlockStake",
      "outputs": [],
      "payable": false,
      "stateMutability": "nonpayable",
      "type": "function",
      "signature": "0xb2bf1d71"
    },
    {
      "constant": false,
      "inputs": [],
      "name": "reserveSeat",
      "outputs": [],
      "payable": true,
      "stateMutability": "payable",
      "type": "function",
      "signature": "0x095484eb"
    },
    {
      "constant": false,
      "inputs": [],
      "name": "stopRSVP",
      "outputs": [],
      "payable": false,
      "stateMutability": "nonpayable",
      "type": "function",
      "signature": "0xccd8e588"
    },
    {
      "constant": false,
      "inputs": [],
      "name": "close",
      "outputs": [],
      "payable": false,
      "stateMutability": "nonpayable",
      "type": "function",
      "signature": "0x43d726d6"
    }
  ],
  "bytecode": "0x60806040526000600155600160025534801561001a57600080fd5b50336000806101000a81548173ffffffffffffffffffffffffffffffffffffffff021916908373ffffffffffffffffffffffffffffffffffffffff1602179055506001546003819055506001600660007fb5df3df90096adbf1064ca4d3a941804aa128ae9a3f6b002927031f0b444b940600102815260200190815260200160002060006101000a81548160ff0219169083151502179055506001600660007f3dfe51ad918da5db69b64e106f00a22f9d03c5fc0adbcbe21f89cdf5217b56d3600102815260200190815260200160002060006101000a81548160ff0219169083151502179055506001600660007fb68847abc22eebe683fb37c6f051dfe2459574fd27e88c0f172f0ebae61a11ed600102815260200190815260200160002060006101000a81548160ff0219169083151502179055506001600660007fbfcba4a224909a1c747e574172253e1d04ced0d88aa014f035a2d0f9ee12986f600102815260200190815260200160002060006101000a81548160ff0219169083151502179055506001600660007f49fafcdae33b60ef6a1b1b79bfe06abb7b2c957b63ba9e0722d5b582b1608731600102815260200190815260200160002060006101000a81548160ff0219169083151502179055506001600660007f39d09b3d6283ba9c33fd33e0462a182cd63cbf395ee907d2923dcc90700904ec600102815260200190815260200160002060006101000a81548160ff0219169083151502179055506001600660007faa688b9f657882ac64974fb93d08a1a28597f451f242594502e4017a9fb5855b600102815260200190815260200160002060006101000a81548160ff0219169083151502179055506001600660007f7a3f2c37a54d06b5d0e1362e86def1ba50940c7650259f54f64afa9eba815f22600102815260200190815260200160002060006101000a81548160ff0219169083151502179055506001600660007f4aa5ce081cabacda29ae40aefac31f6e9fb9d81528cc9d769a1dbd4f27f45f65600102815260200190815260200160002060006101000a81548160ff0219169083151502179055506001600660007f4e2c652637a31c08c5862eff811e68ea2e770d751317282db32d976ab4034457600102815260200190815260200160002060006101000a81548160ff0219169083151502179055506001600660007f4ad1366ac358ff3c276976ff7e8f260c3c2883c47b68b2deedfb24c2d0ef6309600102815260200190815260200160002060006101000a81548160ff0219169083151502179055506001600660007f05bb64605e7f57c47e61865a80cd95462c74f4d10cf481925b704a42751b5c54600102815260200190815260200160002060006101000a81548160ff0219169083151502179055506001600660007ffaaa86f1daa95388d9963b76e84fdf3e73ed62bc689a7afb4336f7d958f15371600102815260200190815260200160002060006101000a81548160ff0219169083151502179055506001600660007f24dd05fbe7c92f2072b39fc939bd6bcc77911415ba16c2af4a8cce8e6efb755b600102815260200190815260200160002060006101000a81548160ff0219169083151502179055506001600660007f41c63743f0429359dd2767e8c231fa6d1d4eafefb6fbe140a944e1ff09baa5c9600102815260200190815260200160002060006101000a81548160ff0219169083151502179055506001600660007fe13e98c3897c98e6a26d41e0c93f68e02185408fe416563a0ada981c91f24ef2600102815260200190815260200160002060006101000a81548160ff0219169083151502179055506001600660007f2a38be6d68784b55c3362277cf749aba0ddd05219c2da938393f7af8f24f419e600102815260200190815260200160002060006101000a81548160ff0219169083151502179055506001600660007f0f853d93820fc6b45f124c6f75c86519ee6bb79b7e6f0e17419811b3e121cb9b600102815260200190815260200160002060006101000a81548160ff0219169083151502179055506001600660007fed494de5f524cd9c3b961d612d555ea5172218460cdbc34b54fc8367b27e65d3600102815260200190815260200160002060006101000a81548160ff0219169083151502179055506001600660007ff7436155ce5c081ba1c64599d615c0929b97e5cc79f3a6c445baa8299653ef05600102815260200190815260200160002060006101000a81548160ff02191690831515021790555060006004819055506108f7806106a76000396000f3fe6080604052600436106100a3576000357c010000000000000000000000000000000000000000000000000000000090048063a0a934ff11610076578063a0a934ff14610205578063b2bf1d711461026e578063bd63758014610336578063ccd8e58814610371578063eeafa75814610388576100a3565b8063095484eb146100ad5780632f9ff863146100b757806343d726d6146101975780638da5cb5b146101ae575b6100ab6103b3565b005b6100b56103b3565b005b3480156100c357600080fd5b5061017d600480360360208110156100da57600080fd5b81019080803590602001906401000000008111156100f757600080fd5b82018360208201111561010957600080fd5b8035906020019184600183028401116401000000008311171561012b57600080fd5b91908080601f016020809104026020016040519081016040528093929190818152602001838380828437600081840152601f19601f8201169050808301925050505050505091929192905050506104a5565b604051808215151515815260200191505060405180910390f35b3480156101a357600080fd5b506101ac610537565b005b3480156101ba57600080fd5b506101c36105cc565b604051808273ffffffffffffffffffffffffffffffffffffffff1673ffffffffffffffffffffffffffffffffffffffff16815260200191505060405180910390f35b34801561021157600080fd5b506102546004803603602081101561022857600080fd5b81019080803573ffffffffffffffffffffffffffffffffffffffff1690602001909291905050506105f1565b604051808215151515815260200191505060405180910390f35b34801561027a57600080fd5b506103346004803603602081101561029157600080fd5b81019080803590602001906401000000008111156102ae57600080fd5b8201836020820111156102c057600080fd5b803590602001918460018302840111640100000000831117156102e257600080fd5b91908080601f016020809104026020016040519081016040528093929190818152602001838380828437600081840152601f19601f820116905080830192505050505050509192919290505050610611565b005b34801561034257600080fd5b5061036f6004803603602081101561035957600080fd5b81019080803590602001909291905050506107a2565b005b34801561037d57600080fd5b5061038661085f565b005b34801561039457600080fd5b5061039d6108c5565b6040518082815260200191505060405180910390f35b6001546003541415156103c557600080fd5b662386f26fc10000341415156103da57600080fd5b60001515600560003373ffffffffffffffffffffffffffffffffffffffff1673ffffffffffffffffffffffffffffffffffffffff16815260200190815260200160002060009054906101000a900460ff16151514151561043957600080fd5b6001600560003373ffffffffffffffffffffffffffffffffffffffff1673ffffffffffffffffffffffffffffffffffffffff16815260200190815260200160002060006101000a81548160ff021916908315150217905550600460008154809291906001019190505550565b60008060009054906101000a900473ffffffffffffffffffffffffffffffffffffffff1673ffffffffffffffffffffffffffffffffffffffff163373ffffffffffffffffffffffffffffffffffffffff1614151561050257600080fd5b6000828051906020012090506006600082815260200190815260200160002060009054906101000a900460ff16915050919050565b6000809054906101000a900473ffffffffffffffffffffffffffffffffffffffff1673ffffffffffffffffffffffffffffffffffffffff163373ffffffffffffffffffffffffffffffffffffffff1614151561059257600080fd5b6000809054906101000a900473ffffffffffffffffffffffffffffffffffffffff1673ffffffffffffffffffffffffffffffffffffffff16ff5b6000809054906101000a900473ffffffffffffffffffffffffffffffffffffffff1681565b60056020528060005260406000206000915054906101000a900460ff1681565b60008180519060200120905060025460035414151561062f57600080fd5b60011515600560003373ffffffffffffffffffffffffffffffffffffffff1673ffffffffffffffffffffffffffffffffffffffff16815260200190815260200160002060009054906101000a900460ff16151514151561068e57600080fd5b600115156006600083815260200190815260200160002060009054906101000a900460ff1615151415156106c157600080fd5b60006006600083815260200190815260200160002060006101000a81548160ff02191690831515021790555060001515600560003373ffffffffffffffffffffffffffffffffffffffff1673ffffffffffffffffffffffffffffffffffffffff16815260200190815260200160002060009054906101000a90505050600460008154809291906001900391905055503373ffffffffffffffffffffffffffffffffffffffff166108fc662386f26fc100009081150290604051600060405180830381858888f1935050505015801561079d573d6000803e3d6000fd5b505050565b6000809054906101000a900473ffffffffffffffffffffffffffffffffffffffff1673ffffffffffffffffffffffffffffffffffffffff163373ffffffffffffffffffffffffffffffffffffffff161415156107fd57600080fd5b600015156006600083815260200190815260200160002060009054906101000a900460ff16151514151561083057600080fd5b60016006600083815260200190815260200160002060006101000a81548160ff02191690831515021790555050565b6000809054906101000a900473ffffffffffffffffffffffffffffffffffffffff1673ffffffffffffffffffffffffffffffffffffffff163373ffffffffffffffffffffffffffffffffffffffff161415156108ba57600080fd5b600254600381905550565b6004548156fea165627a7a723058204d242ab7b6c357f369957733442d60a362bdc767c7a179325429e1a8aa2479c80029",
  "source": "//Current version:0.5.2+commit.1df8f40c.Emscripten.clang\npragma solidity ^0.5.2;\n\n/// @title  Reservez s'il vous plait\n/// @author CagliariEthereumLab\n/// @notice RSVP aka Reservez s'il vous plait version 0.0.2\n\ncontract RSVP {\n\n    address payable public owner;\n\n    uint RESERVATION = 0;\n    uint UNLOCKING = 1;\n    uint state;\n\n    uint public stakeholders;\n\n    mapping(address => bool) public bookings;\n    mapping(bytes32 => bool) stakes;\n\n    modifier restricted () {\n        require(msg.sender == owner);\n        _;\n    }\n\n    constructor() public{\n        owner = msg.sender;\n        state = RESERVATION;\n\n        stakes[0xb5df3df90096adbf1064ca4d3a941804aa128ae9a3f6b002927031f0b444b940] = true;      // 7oFWHucvCep#kQ 8BcVG^6!qD8Dh!\n        stakes[0x3dfe51ad918da5db69b64e106f00a22f9d03c5fc0adbcbe21f89cdf5217b56d3] = true;      // ZV%i$7DbNwhNfG SA7@7Pjb8Q$5Y3\n        stakes[0xb68847abc22eebe683fb37c6f051dfe2459574fd27e88c0f172f0ebae61a11ed] = true;      // 5kDtgrre%Mgj%r q8Rdq$MXMmEQmY\n        stakes[0xbfcba4a224909a1c747e574172253e1d04ced0d88aa014f035a2d0f9ee12986f] = true;      // N%NwB4vYhi!Wj@ o5#WJos%ZPeJut\n        stakes[0x49fafcdae33b60ef6a1b1b79bfe06abb7b2c957b63ba9e0722d5b582b1608731] = true;      // hLfTh!R2PTaTK@ Xg@62QmATe$UmT\n        stakes[0x39d09b3d6283ba9c33fd33e0462a182cd63cbf395ee907d2923dcc90700904ec] = true;      // 3H6mGw7Xu7%6^J kma%kWDb9#2ng5\n        stakes[0xaa688b9f657882ac64974fb93d08a1a28597f451f242594502e4017a9fb5855b] = true;      // X%vgw#u$uu7rh! k$AVtDAk386RSt\n        stakes[0x7a3f2c37a54d06b5d0e1362e86def1ba50940c7650259f54f64afa9eba815f22] = true;      // !#T%SpETT7bWEk U^x$XRP@3j%2Nd\n        stakes[0x4aa5ce081cabacda29ae40aefac31f6e9fb9d81528cc9d769a1dbd4f27f45f65] = true;      // UX6xZz$2$iCY%J im7yssf8^ZZ9Ek\n        stakes[0x4e2c652637a31c08c5862eff811e68ea2e770d751317282db32d976ab4034457] = true;      // $X%W3swMV7H9Ew D5uRDRkmWict$%\n        stakes[0x4ad1366ac358ff3c276976ff7e8f260c3c2883c47b68b2deedfb24c2d0ef6309] = true;      // PuN8DkggGW!W6@ CBTKyuU4mg$gnV\n        stakes[0x05bb64605e7f57c47e61865a80cd95462c74f4d10cf481925b704a42751b5c54] = true;      // 3HmYZq^X5Lj!Sm !xCy9GcCFbNu6b\n        stakes[0xfaaa86f1daa95388d9963b76e84fdf3e73ed62bc689a7afb4336f7d958f15371] = true;      // N5QsahGuMtv6^V ^Bt9NKRT4FkTFT\n        stakes[0x24dd05fbe7c92f2072b39fc939bd6bcc77911415ba16c2af4a8cce8e6efb755b] = true;      // 4kPMk7!MbC3YC@ 5LFvm3yNX@!8#7\n        stakes[0x41c63743f0429359dd2767e8c231fa6d1d4eafefb6fbe140a944e1ff09baa5c9] = true;      // r!6v5VffVUNFX^ FuD4R%4AC8w4X8\n        stakes[0xe13e98c3897c98e6a26d41e0c93f68e02185408fe416563a0ada981c91f24ef2] = true;      // noTrbid2rg@hBM yQxNDg!cD#j@U8\n        stakes[0x2a38be6d68784b55c3362277cf749aba0ddd05219c2da938393f7af8f24f419e] = true;      // #7NFNcLhQ9ifVF 3S$#xoJx2Y2UAk\n        stakes[0x0f853d93820fc6b45f124c6f75c86519ee6bb79b7e6f0e17419811b3e121cb9b] = true;      // @Xcdhoj6JPkRk# 7yNg@9X%b@DorV\n        stakes[0xed494de5f524cd9c3b961d612d555ea5172218460cdbc34b54fc8367b27e65d3] = true;      // bFj448!EMjLVW$ !4VK5!nz$Hwcup\n        stakes[0xf7436155ce5c081ba1c64599d615c0929b97e5cc79f3a6c445baa8299653ef05] = true;      // yuV^vqFy66@uwd tNs6SuhmNUV9N^\n\n        stakeholders = 0;\n    }\n\n    function addCode(bytes32 _hashedCode) public restricted {\n        require (stakes[_hashedCode] == false); // Don't overwrite previous mappings and return false\n        stakes[_hashedCode] = true;\n    }\n\n    function verifyCode(string memory _code) view public restricted returns (bool) {\n        bytes32 hash =  keccak256(bytes(_code));\n        return stakes[hash];\n    }\n\n    //E' possibile sbloccare una puntata con qualsiasi codice\n    function unlockStake(string memory _code) public {\n        bytes32 hash =  keccak256(bytes(_code));\n\n        require(state == UNLOCKING);\n        require(bookings[msg.sender] == true);\n        require(stakes[hash] == true);\n\n        stakes[hash] = false;\n        bookings[msg.sender] == false;\n        stakeholders --;\n        msg.sender.transfer(0.010 ether);\n\n    }\n\n    //E' possibile fare una puntata anche se non sono stati inseriti ancora codici\n    function reserveSeat() payable public {\n        require(state == RESERVATION);\n        require(msg.value == 0.010 ether);\n        require(bookings[msg.sender] == false);\n        bookings[msg.sender] = true;\n        stakeholders ++;\n    }\n\n    function() payable  external {\n        reserveSeat();\n    }\n\n    function stopRSVP() public restricted {\n        state = UNLOCKING;\n    }\n\n    function close() public restricted {\n        selfdestruct(owner);\n    }\n\n}\n\n\n\n\n\n\n\n\n",
  "sourcePath": "/media/Dati/CagliariEthereumLab/TestSuiteLab/contracts/RSVP/contracts/RSVP.sol",
  "compiler": {
    "name": "solc",
    "version": "0.5.2+commit.1df8f40c.Emscripten.clang"
  },
  "schemaVersion": "3.0.1",
  "updatedAt": "2019-01-19T12:23:06.243Z",
  "devdoc": {
    "author": "CagliariEthereumLab",
    "methods": {},
    "title": "Reservez s'il vous plait"
  },
  "userdoc": {
    "methods": {},
    "notice": "RSVP aka Reservez s'il vous plait version 0.0.2"
  }
}